:020000020000FC
:1000000010C0000000000000000000000000000020
:1000100000000000000000000000000000000000E0
:10002000000002E00EBF0FE50DBF789400270ABB69
:1000300004BB08BB02BB04E007B903E006B90CEF40
:1000400001BB0FEF07BB0BBB05BB0CE009B908E018
:100050000AB906E800BD2A99FECF49D031E021E077
:1000600011E018BB31E009B3003009F020D09894BA
:1000700003B339E0003009F01AD098942395110F9A
:1000800080F710E018BB889414E012BB31E009B38C
:10009000003009F00CD0989403B339E0003009F037
:1000A00006D098942395110F80F712BBD4CF00FD92
:1000B00016D0339501FD13D0339502FD10D0339542
:1000C00003FD0DD0339504FD0AD0339505FD07D00F
:1000D000339506FD04D0339507FD01D008955D9B4F
:1000E000FECF2CB95D9BFECF3CB901D008950F9394
:1000F0002F933F930FEF2FEF0A95000000000000B1
:0E010000D9F72A95C9F73F912F910F910895D5
:00000001FF
