:100000000C9446000C9465000C9465000C946500FB
:100010000C9465000C9465000C9465000C946500CC
:100020000C9465000C9465000C9465000C946500BC
:100030000C9465000C9465000C9431010C946500DF
:100040000C9465000C9465000C9465000C9465009C
:100050000C9465000C945D010C9465000C94650093
:100060000C9465000C9465000C9465000C9465007C
:100070000C9465000C9465000C9465000C9465006C
:100080000C9465000C9465000C94650011241FBE4F
:10009000CFEFD0E1DEBFCDBF11E0A0E0B1E0E8E1FD
:1000A000F8E000E00BBF02C007900D92A631B10747
:1000B000D9F711E0A6E1B1E001C01D92A032B1076D
:1000C000E1F70E94BE010C940A040C94000089B36D
:1000D00080931E0110921F0184FDF9CF8FEF93ECE6
:1000E000A9E081509040A040E1F700C0000013B8A3
:1000F00008958530910509F440C086309105ACF42F
:100100008230910571F1833091053CF4009709F13B
:100110008130910509F049C020C08330910529F153
:100120008430910509F041C024C08830910589F1DF
:10013000893091053CF48630910519F1873091059D
:10014000A1F523C08930910541F18A30910569F507
:1001500028C08091000188BB08958091020188BB6E
:1001600008958091040188BB08958091060188BBA1
:1001700008958091080188BB089580910A0188BB89
:10018000089580910C0188BB089580910E0188BB71
:1001900008958091100188BB08958091120188BB59
:1001A00008958091140188BB08958091000188BB57
:1001B0000895EF92FF920F931F9318BAE0901601E3
:1001C000F09017010091180110911901C801B701B1
:1001D00020E030E040E251E40E94E8020E94500337
:1001E000362F272F60931A0170931B0180916500B1
:1001F000813051F482E08093650080911A019091E2
:100200001B010E94790028C0832F922FBC01660F2A
:10021000771F880F991F880F991F880F991F680FE4
:10022000791F70931B0160931A0180E090E00E9497
:100230007C039B01AC01C801B7010E9483020E94AC
:100240005003DC01CB0190931D0180931C0121E040
:10025000209365000E9479001F910F91FF90EF900D
:1002600008951F920F920FB60F920BB60F921124A2
:100270002F933F934F935F936F937F938F939F93AE
:10028000AF93BF93EF93FF930E94D9008CEE98E158
:100290009DBD8CBDFF91EF91BF91AF919F918F91CB
:1002A0007F916F915F914F913F912F910F900BBE76
:1002B0000F900FBE0F901F9018951F920F920FB6C0
:1002C0000F920BB60F9211242F933F934F935F938E
:1002D0006F937F938F939F93AF93BF93EF93FF930E
:1002E00065B170E0882777FD8095982F0E947E0386
:1002F00021EE3AE744E250E40E94E80260931601DE
:10030000709317018093180190931901FF91EF9159
:10031000BF91AF919F918F917F916F915F914F911D
:100320003F912F910F900BBE0F900FBE0F901F901B
:10033000189581E08EBD87B7846087BF8CEE98E109
:100340009DBD8CBD08953E9A87B187B93D9A379A75
:1003500086B1876086B9339A359A369A089518BA65
:100360008FEF87BB1092650093E0909364001BBAF7
:100370001ABA15BA84BB13B882B90895BF92CF9246
:10038000DF92EF92FF920F931F93CF93DF930E9420
:10039000AF010E94A3010E949901789481E085BB7E
:1003A000C1E0D0E002E013E0DD246894D2F8CC2470
:1003B0006894C3F8EE24FF24BB24B39489B38093DC
:1003C0001E0110921F0180FD2EC037988FEF93EC15
:1003D000A9E081509040A040E1F700C000002196C4
:1003E000C230D10599F0C330D10520F4C130D10518
:1003F000C1F407C0C330D10561F0C430D10589F420
:100400000DC087B1812787B9B5BA0BC0389A05BB33
:1004100008C087B1812787B9D5BA03C0389AC5BA51
:10042000E701379A369A80911E0181FDC7CF8FEF81
:1004300093ECA9E081509040A040E1F700C000009B
:1004400080911E0182FD2DC08FEF93ECA9E08150B9
:100450009040A040E1F700C00000C230D10581F01B
:10046000C330D10520F4C130D10579F407C0C330C1
:10047000D10541F0C430D10541F406C01A9A05C037
:100480001B9A03C01C9A01C01D9A8FEF93ECA9E040
:1004900081509040A040E1F700C000001E9A0E94E9
:1004A000670080911E0183FD89CF8FEF93ECA9E057
:1004B00081509040A040E1F700C00000C230D1055B
:1004C00081F0C330D10520F4C130D10579F407C0E3
:1004D000C330D10541F0C430D10541F406C01A9AA9
:1004E00005C01B9A03C01C9A01C01D9A8FEF93ECA4
:1004F000A9E081509040A040E1F700C000001F9AA1
:100500000E9467005BCF5058BB27AA270ED048C176
:1005100039D130F03ED120F031F49F3F11F41EF478
:100520002EC10EF4E095E7FB24C1E92F4AD180F3F8
:10053000BA17620773078407950718F071F49EF5E0
:1005400062C10EF4E0950B2EBA2FA02D0B01B9015C
:1005500090010C01CA01A0011124FF27591B99F039
:10056000593F50F4503E68F11A16F040A22F232F45
:10057000342F4427585FF3CF469537952795A79595
:10058000F0405395C9F77EF41F16BA0B620B730B3C
:10059000840BBAF09150A1F0FF0FBB1F661F771FAD
:1005A000881FC2F70EC0BA0F621F731F841F48F462
:1005B000879577956795B795F7959E3F08F0B3CFE8
:1005C0009395880F08F09927EE0F979587950895D2
:1005D0000CD0E6C0DED040F0D5D030F021F45F3F43
:1005E00019F0C7C0511110C1CAC0EBD098F39923BC
:1005F000C9F35523B1F3951B550BBB27AA276217E7
:100600007307840738F09F5F5F4F220F331F441F2B
:10061000AA1FA9F333D00E2E3AF0E0E830D0915063
:100620005040E695001CCAF729D0FE2F27D0660F50
:10063000771F881FBB1F261737074807AB07B0E88F
:1006400009F0BB0B802DBF01FF2793585F4F2AF0A5
:100650009E3F510568F08DC0D7C05F3FECF3983ED8
:10066000DCF3869577956795B795F7959F5FC9F702
:10067000880F911D9695879597F90895E1E0660F8B
:10068000771F881FBB1F621773078407BA0720F004
:10069000621B730B840BBA0BEE1F88F7E09508956D
:1006A00098D088F09F5790F0B92F9927B751A0F0B4
:1006B000D1F0660F771F881F991F1AF0BA95C9F7F6
:1006C00012C0B13081F09FD0B1E008959CC0672F77
:1006D000782F8827B85F39F0B93FCCF386957795A6
:1006E0006795B395D9F73EF490958095709561958F
:1006F0007F4F8F4F9F4F0895E89409C097FB3EF4BA
:1007000090958095709561957F4F8F4F9F4F99235E
:10071000A9F0F92F96E9BB279395F69587957795DC
:100720006795B795F111F8CFFAF4BB0F11F460FF9C
:100730001BC06F5F7F4F8F4F9F4F16C0882311F0F4
:1007400096E911C0772321F09EE8872F762F05C008
:10075000662371F096E8862F70E060E02AF09A95A3
:10076000660F771F881FDAF7880F9695879597F998
:10077000089597F99F6780E870E060E008959FEF23
:1007800080EC089500240A94161617061806090628
:10079000089500240A9412161306140605060895F7
:1007A000092E0394000C11F4882352F0BB0F40F47F
:1007B000BF2B11F460FF04C06F5F7F4F8F4F9F4FBF
:1007C000089557FD9058440F551F59F05F3F71F041
:1007D0004795880F97FB991F61F09F3F79F08795A8
:1007E0000895121613061406551FF2CF4695F1DF31
:1007F00008C0161617061806991FF1CF86957105C1
:10080000610508940895E894BB2766277727CB01F4
:0808100097F90895F894FFCF59
:10081800400079002400300019001200020078001E
:0608280000001000790041
:00000001FF
