:100000000C9446000C9465000C9465000C946500FB
:100010000C9465000C9465000C9465000C946500CC
:100020000C9465000C9465000C9465000C946500BC
:100030000C9465000C9465000C9465000C946500AC
:100040000C9465000C9465000C9465000C9465009C
:100050000C9465000C9465000C9465000C9465008C
:100060000C9465000C9465000C9465000C9465007C
:100070000C9465000C9465000C9465000C9465006C
:100080000C9465000C9465000C94650011241FBE4F
:10009000CFEFD0E1DEBFCDBF11E0A0E0B1E0EAE0FC
:1000A000FCE000E00BBF02C007900D92A433B10743
:1000B000D9F711E0A4E3B1E001C01D92AD34B1075E
:1000C000E1F70E94C7020C9403060C940000DF9332
:1000D000CF9300D0CDB7DEB79A83898305C08981DD
:1000E0009A8101979A83898389819A810097B9F7C8
:1000F0000F900F90CF91DF910895DF93CF93CDB7FD
:10010000DEB7A5E3B0E0E5E3F0E0808184608C93A6
:1001100088E795E00E946700A5E3B0E0E5E3F0E042
:1001200080818B7F8C93CF91DF910895DF93CF9364
:10013000CDB7DEB7A5E3B0E0E5E3F0E080818E7FE8
:100140008C9380E197E20E946700E5E3F0E080E3B2
:1001500080830E947D0088EE93E00E946700E5E3C3
:10016000F0E080E380830E947D0088EE93E00E94AF
:100170006700E5E3F0E080E380830E947D0088EE85
:1001800093E00E946700E5E3F0E080E280830E9454
:100190007D00CF91DF910895DF93CF930F92CDB77C
:1001A000DEB7898389818F6080933C01A5E3B0E04D
:1001B000E5E3F0E08081982F906F80913C018923E6
:1001C0008C93A5E3B0E0E5E3F0E080818E7F8C9333
:1001D0000E947D0089818295807F80933C01A5E308
:1001E000B0E0E5E3F0E08081982F9F7080913C01C2
:1001F000892B8C93A5E3B0E0E5E3F0E080818E7F6E
:100200008C930E947D000F90CF91DF910895DF9332
:10021000CF930F92CDB7DEB7898389818F608093AA
:100220003C01A5E3B0E0E5E3F0E08081982F906F1A
:1002300080913C0189238C93A5E3B0E0E5E3F0E0F5
:10024000808181608C930E947D0089818295807F6E
:1002500080933C01A5E3B0E0E5E3F0E08081982FD6
:100260009F7080913C01892B8C93A5E3B0E0E5E37E
:10027000F0E0808181608C930E947D000F90CF918F
:10028000DF9108950F931F93DF93CF9300D000D099
:10029000CDB7DEB79C838B831A8219820FC0298168
:1002A0003A818B819C81FC01E20FF31F80810E94C7
:1002B000070189819A8101969A83898309811A812C
:1002C0008B819C810E94FA050817190740F30F9053
:1002D0000F900F900F90CF91DF911F910F91089584
:1002E0000F931F93DF93CF93CDB7DEB7AE970FB6C3
:1002F000F894DEBF0FBECDBF6BA77CA78DA79EA7CE
:100300001A8219828BA59CA5ADA5BEA5BB2394F42A
:100310008DE20E9407018BA59CA5ADA5BEA5B09559
:10032000A095909581959F4FAF4FBF4F8BA79CA7EE
:10033000ADA7BEA78A818F5F8A838A81082F10E0CC
:100340008BA59CA5ADA5BEA52AE030E040E050E01D
:10035000BC01CD010E94A005DC01CB01AC019801DC
:10036000220F331FCE010196820F931FFC0132969C
:10037000518340838BA59CA5ADA5BEA52AE030E0A6
:1003800040E050E0BC01CD010E94A005DA01C901A6
:100390008BA79CA7ADA7BEA78BA59CA5ADA5BEA509
:1003A0000097A105B10531F68A81898389818A8305
:1003B00014C08A81882F90E09C01220F331FCE0148
:1003C0000196820F931FFC01329680819181805D9E
:1003D0000E9407018A8181508A838A81882349F794
:1003E000AE960FB6F894DEBF0FBECDBFCF91DF91B2
:1003F0001F910F910895DF93CF9300D000D000D0CC
:10040000CDB7DEB79E838D831C821B821A82198230
:100410008D819E812AE030E0B9010E948D059A838A
:1004200089838D819E812AE030E0B9010E948D058B
:10043000CB019C838B838B81805D0E940701898126
:10044000805D0E94070126960FB6F894DEBF0FBEAE
:10045000CDBFCF91DF910895DF93CF9300D0CDB77B
:10046000DEB71A82198208C080E80E94CC00898118
:100470009A8101969A83898389819A81181619062F
:100480009CF70F900F90CF91DF910895DF93CF935A
:1004900000D0CDB7DEB71A82198208C080EC0E9466
:1004A000CC0089819A8101969A83898389819A8176
:1004B000883291059CF30F900F90CF91DF910895B2
:1004C000DF93CF9300D0CDB7DEB79A83898389813C
:1004D0009A818130910571F4A5E3B0E0E5E3F0E0A5
:1004E000808180628C93A4E3B0E0E5E3F0E080815A
:1004F00080628C9389819A81009771F4A5E3B0E0C2
:10050000E5E3F0E080818F7D8C93A4E3B0E0E4E349
:10051000F0E080818F7D8C930F900F90CF91DF91D1
:100520000895DF93CF93CDB7DEB7EBE3F0E0108211
:10053000EAE3F0E080E48083E8E3F0E01082E7E3C0
:10054000F0E01082E5E3F0E01082E4E3F0E087EF12
:100550008083E2E3F0E080EC8083E1E3F0E088E098
:100560008083E3E2F0E01082E2E2F0E080E3808367
:10057000E2E6F0E01082E1E6F0E01082E5E6F0E08D
:100580001082E4E6F0E01082CF91DF910895DF93CE
:10059000CF93CDB7DEB760970FB6F894DEBF0FBE2E
:1005A000CDBF0E9491020E94960088E00E94CC007C
:1005B000E9E3F0E08081882F90E0817090701F86E1
:1005C0001E86009721F421E030E03F872E8780913E
:1005D0000001909101012E853F85282339233D8715
:1005E0002C8780913501909136011B861A860097E1
:1005F00021F481E090E09B878A878C859D852A8500
:100600003B85822393230097A1F08CE00E94CC00CD
:1006100081E00E94CC0082E091E00E9442011092B1
:1006200001011092000181E090E0909336018093E7
:100630003501E9E3F0E08081882F90E082709070CE
:1006400019861886009721F481E090E099878887C1
:100650008091000190910101288539852823392353
:10066000809135019091360182239323009709F4FC
:100670007AC081E00E94CC0080E80E94CC001092F9
:100680003B0110923A0111C080913A0190913B01D7
:10069000FC01E35CFE4F108280913A0190913B0196
:1006A000019690933B0180933A0180913A01909199
:1006B0003B018031910540F38DE391E023E131E08E
:1006C000B90148E050E00E94F10510923B01109200
:1006D0003A011CC080913A0190913B01FC01E35C1E
:1006E000FE4F8081882349F480913A0190913B012B
:1006F000FC01E35CFE4F80E2808380913A0190919F
:100700003B01019690933B0180933A0180913A011D
:1007100090913B0180319105E8F210923B011092DB
:100720003A0113C080913A0190913B01FC01E35CD6
:10073000FE4F80810E94070180913A0190913B0118
:10074000019690933B0180933A0180913A019091F8
:100750003B018031910530F31092010110920001AC
:1007600081E080933401E9E3F0E08081882F90E01C
:10077000847090701F821E82009721F421E030E087
:100780003F832E8380910001909101012E813F8152
:1007900028233923809135019091360182239323B8
:1007A000009709F489C06EC080E69AEE90933B01F1
:1007B00080933A0109C080913A0190913B010197E1
:1007C00090933B0180933A0180913A0190913B01D3
:1007D000009789F780913D018093390110923B0188
:1007E00010923A011AC020913A0130913B01809158
:1007F0003A0190913B010196FC01E35CFE4F808140
:10080000F901E35CFE4F808380913A0190913B01B6
:10081000019690933B0180933A0180913A01909127
:100820003B018F309105F8F28091390180934C01A2
:1008300080913401813021F480E80E94CC0003C013
:1008400080EC0E94CC0010923B0110923A0113C040
:1008500080913A0190913B01FC01E35CFE4F808165
:100860000E94070180913A0190913B01019690937B
:100870003B0180933A0180913A0190913B01803194
:10088000910530F3E9E3F0E08081882F90E08470F7
:1008900090701D82009711F431E03D838091340106
:1008A000888B8889882311F091E0988B88892D8125
:1008B0008223882309F078CFE9E3F0E08081882F54
:1008C00090E0887090701C821B82009721F481E078
:1008D00090E09C838B8380910001909101012B819A
:1008E0003C81282339238091350190913601822360
:1008F0009323009709F47AC081E00E94CC0080EC39
:100900000E94CC0010923B0110923A0111C08091DC
:100910003A0190913B01FC01E35CFE4F1082809113
:100920003A0190913B01019690933B0180933A01EB
:1009300080913A0190913B018031910540F38DE324
:1009400091E02BE131E0B90148E050E00E94F1056F
:1009500010923B0110923A011CC080913A01909193
:100960003B01FC01E35CFE4F8081882349F48091C8
:100970003A0190913B01FC01E35CFE4F80E28083F1
:1009800080913A0190913B01019690933B018093B5
:100990003A0180913A0190913B0180319105E8F252
:1009A00010923B0110923A0113C080913A0190914C
:1009B0003B01FC01E35CFE4F80810E9407018091B6
:1009C0003A0190913B01019690933B0180933A014B
:1009D00080913A0190913B018031910530F3109262
:1009E00001011092000182E080933401E9E3F0E01C
:1009F0008081882F90E0807190701A821982009710
:100A000021F421E030E03A83298380910001909124
:100A1000010129813A812823392380913501909160
:100A2000360182239323009709F440C081E00E949D
:100A3000CC0083E291E00E9442018EE190E090932D
:100A40003B0180933A011FC080E395E79093380102
:100A50008093370109C08091370190913801019747
:100A6000909338018093370180913701909138013C
:100A7000009789F780913A0190913B0101979093FB
:100A80003B0180933A0180913A0190913B0100979C
:100A9000D9F6109201011092000188E00E94CC006A
:100AA000109236011092350110923401E9E3F0E022
:100AB0008081882F90E09C0121703070E9E3F0E0A4
:100AC0008081882F90E082709070282B392BE9E389
:100AD000F0E08081882F90E084709070282B392B73
:100AE000E9E3F0E08081882F90E088709070282BF7
:100AF000392BE9E3F0E08081882F90E080719070DD
:100B0000822B932B8F31910509F052CD81E090E03B
:100B100090930101809300014BCD97FB092E07268E
:100B20000AD077FD04D027D006D000201AF47095A3
:100B300061957F4F0895F6F7909581959F4F0895A1
:100B400097FB092E05260ED057FD04D028D00AD0D9
:100B5000001C38F450954095309521953F4F4F4FEC
:100B60005F4F0895F6F790958095709561957F4F4A
:100B70008F4F9F4F0895AA1BBB1B51E107C0AA1FAF
:100B8000BB1FA617B70710F0A61BB70B881F991F2E
:100B90005A95A9F780959095BC01CD010895A1E2E1
:100BA0001A2EAA1BBB1BFD010DC0AA1FBB1FEE1FE7
:100BB000FF1FA217B307E407F50720F0A21BB30B32
:100BC000E40BF50B661F771F881F991F1A9469F7AE
:100BD00060957095809590959B01AC01BD01CF010A
:100BE0000895FB01DC0102C001900D92415050407C
:100BF000D8F70895FC0101900020E9F780959095C1
:0A0C00008E0F9F1F0895F894FFCF98
:100C0A0001002020202057656C636F6D652020202D
:100C1A00202000436F6E666C75780052616D7061BA
:100C2A00726400202020205475726E204F464620A0
:040C3A002020200056
:00000001FF
