:100000000C9446000C9465000C9465000C946500FB
:100010000C9465000C9465000C9465000C946500CC
:100020000C9465000C9465000C9465000C946500BC
:100030000C9465000C9465000C9465000C943F01D1
:100040000C9465000C9465000C9465000C9465009C
:100050000C9465000C9456010C9465000C9465009A
:100060000C9465000C9465000C9465000C9465007C
:100070000C9465000C9465000C9465000C9465006C
:100080000C9465000C9465000C94650011241FBE4F
:10009000CFEFD0E1DEBFCDBF11E0A0E0B1E0E2EDF7
:1000A000FBE000E00BBF02C007900D92A031B1074A
:1000B000D9F711E0A0E1B1E001C01D92AA31B1076A
:1000C000E1F70E94A4020C94E7050C9400001BBA0F
:1000D00080E48ABB15BA87EF84BB18BA8FEF87BB61
:1000E0000895F89417BE88E080BF8DE083BF8FEF3E
:1000F00081BF82E087BF16BE0895AA9A8FE891E07B
:100100000197F1F700C00000AA9808958FEF94E3DB
:10011000ACE081509040A040E1F700C000008FEFBC
:1001200094E3ACE081509040A040E1F700C00000B3
:100130008FEF94E3ACE081509040A040E1F700C025
:1001400000008FEF94E3ACE081509040A040E1F7D5
:1001500000C0000080E385BBAA9AAA98AFE1BEE484
:100160001197F1F700C0000085BBAA9AAA98EFE8A2
:10017000F1E03197F1F700C0000085BBAA9AAA9878
:100180008FE193E00197F1F700C0000080E285BBAA
:10019000AA9AAA98AFE8B1E01197F1F700C0000061
:1001A00085BBAA9AAA9880EC85BBAA9AAA98EFE880
:1001B000F1E03197F1F700C0000015BAAA9AAA98A9
:1001C00085BBAA9AAA988FE891E00197F1F700C041
:1001D000000015BAAA9AAA9880E185BBAA9AAA98A3
:1001E000AFE8B1E01197F1F700C0000015BAAA9A84
:1001F000AA9880E485BBAA9AAA98EFE3FFE1319719
:10020000F1F700C00000089595B3956095BBEFE845
:10021000F1E03197F1F700C0000095B39F7095BBF6
:1002200095B3282F207F922B95BBEFE8F1E0319713
:10023000F1F700C00000AA98EFE8F1E03197F1F77C
:1002400000C00000AA9AEFE8F1E03197F1F700C092
:10025000000095B39F7095BB95B38295807F892BE5
:1002600085BB8FE891E00197F1F700C00000AA98E4
:10027000EFE8F1E03197F1F700C0000008951F9218
:100280000F920FB60F9211248F939F9380911401B8
:100290008F5F8093140198B381E0892788BB9F9179
:1002A0008F910F900FBE0F901F9018951F920F9275
:1002B0000FB60F9211248F939F9384B195B19093B1
:1002C00011018093100133989F918F910F900FBE71
:1002D0000F901F90189580E885BBAA9AAA9880EC89
:1002E00085BBAA9AAA98809110019091110121E0F2
:1002F0008A3D9207D0F080E20E94040160911001D3
:10030000709111016A5D714080E090E00E942405C7
:100310002DEC3CEC4CEC5FE30E9490040E94F8044E
:10032000709313016093120108958DE20E940401FD
:1003300080911001909111016AED71E0681B790BB9
:1003400080E090E00E9424052DEC3CEC4CEC5FE357
:100350000E9490040E94F8047093130160931201AC
:10036000089580911201909113016AE070E00E945B
:10037000BE056093180170931901862F805D0E945D
:10038000040180911801909119019C01220F331FE3
:10039000880F991F880F991F880F991F280F391FE1
:1003A0008091120190911301821B930B9093130182
:1003B00080931201805D0E94040108953E9A389A4C
:1003C00087B187B9379A86B1876086B9339A359AEB
:1003D000369A089515BAAA9AAA9880E285BBAA9A75
:1003E000AA988FE891E00197F1F700C000008FEF25
:1003F00099E6A8E181509040A040E1F700C00000DC
:1004000080E20E94040180E20E9404018FEF99E6DD
:10041000A8E181509040A040E1F700C0000089B3FE
:10042000809318011092190182FD0CC08FEF92E5A4
:10043000A7E081509040A040E1F700C0000082E0BA
:10044000809317018091180180FD0EC08FEF92E517
:10045000A7E081509040A040E1F700C000008091EB
:1004600016018F5F809316018091180184FD0EC0E4
:100470008FEF92E5A7E081509040A040E1F700C0E7
:10048000000080911601815080931601089580E844
:1004900085BBAA9AAA9880E385BBAA9AAA988FE8F6
:1004A00091E00197F1F700C000008FEF99E6A8E115
:1004B00081509040A040E1F700C0000080E20E941F
:1004C000040180E20E9404018FEF99E6A8E18150C7
:1004D0009040A040E1F700C0000089B3809318016C
:1004E0001092190182FD0BC08FEF92E5A7E08150B9
:1004F0009040A040E1F700C00000109217018091E9
:10050000180180FD0EC08FEF92E5A7E0815090406A
:10051000A040E1F700C00000809115018F5F80933B
:1005200015018091180184FD0EC08FEF92E5A7E0C0
:1005300081509040A040E1F700C00000809115017B
:100540008150809315010895BF92CF92DF92EF9270
:10055000FF920F931F93DF93CF93CDB7DEB76097D2
:100560000FB6F894DEBF0FBECDBF0E9467000E9499
:1005700071000E9486000E94DE017894DE011196CF
:10058000E0E0F1E080E101900D928150E1F780E43C
:1005900085BBAA9AAA9815BAAA9AAA988FE891E058
:1005A0000197F1F700C00000109219011092180194
:1005B00080E090E08E010F5F1F4F880F991FF801B8
:1005C000E80FF91F80810E94040180911801909129
:1005D00019010196909319018093180188309105B3
:1005E00060F300E805BBAA9AAA9880EB85BBAA9A9B
:1005F000AA98AFE8B1E01197F1F700C0000080E0E1
:100600000E94040105BBAA9AAA9880EF85BBAA9A0A
:10061000AA98EFE8F1E03197F1F700C0000083E419
:100620000E94040180EC85BBAA9AAA9815BAAA9ADE
:10063000AA988FE891E00197F1F700C0000088E4E4
:100640000E94040185E60E9404018CE60E940401D8
:100650008CE60E9404018FE60E940401EE24689457
:10066000E5F80F2EFAE0FF2EF02DBB24B39400E046
:1006700010E00F2EF0ECDF2EF02D0F2EF0E6CF2E37
:10068000F02D15BAAA9AAA98E5BAAA9AAA98AFE83C
:10069000B1E01197F1F700C00000809114018C3394
:1006A00038F010921401809115018F5F809315012D
:1006B000809115018C3338F010921501809116014C
:1006C0008F5F8093160180911601883110F010928F
:1006D000160115BAAA9AAA98E5BAAA9AAA98EFE8B2
:1006E000F1E03197F1F700C00000809116016F2D05
:1006F0000E94B20590E0C096909319018093180172
:100700000E94040180911601893048F490E0C0965F
:1007100090931901809318010E9404011AC090E07F
:10072000805F9D4F2091180130911901A901440F5C
:10073000551F220F331F220F331F220F331F240F89
:10074000351F821B930B90931901809318010E940F
:1007500004018AE30E940401809115016F2D0E941B
:10076000B20590E0C09690931901809318010E9401
:10077000040180911501893048F490E0C09690936F
:100780001901809318010E9404011AC090E0805F53
:100790009D4F2091180130911901A901440F551F57
:1007A000220F331F220F331F220F331F240F351F39
:1007B000821B930B90931901809318010E940401EE
:1007C0008AE30E940401809114016F2D0E94B205FA
:1007D00090E0C09690931901809318010E94040143
:1007E00020911801309119012115310559F480919A
:1007F000140190E0C09690931901809318010E9413
:10080000040118C08091140190E0805F9D4FA90100
:10081000440F551F220F331F220F331F220F331F88
:10082000240F351F821B930B90931901809318019D
:100830000E9404010E946B018091120190911301AA
:100840008330910508F4DE9A809112019091130192
:100850008530910508F0DE980E94B101339A89B382
:10086000809318011092190182FD19C08FEF99E64B
:10087000A8E181509040A040E1F700C0000089B39A
:100880008093180182FD0BC08FEF91EEA4E08150A0
:100890009040A040E1F700C00000B09217018091A5
:1008A000180181FD0EC08FEF93ECA9E081509040BC
:1008B000A040E1F700C00000C801609117010E944C
:1008C000DA058091180183FD1DC08FEF93ECA9E03C
:1008D00081509040A040E1F700C00000C8010E9494
:1008E000D20580931701D5BAAA9AAA98C5BAAA9A2E
:1008F000AA98AFE8B1E01197F1F700C00000805D61
:100900000E94040180911701813011F40E94EA01D4
:1009100080911701823009F0B4CE0E944702B1CE17
:100920000CD0E6C0DED040F0D5D030F021F45F3FEF
:1009300019F0C7C0511110C1CAC0EBD098F3992368
:10094000C9F35523B1F3951B550BBB27AA27621793
:100950007307840738F09F5F5F4F220F331F441FD8
:10096000AA1FA9F333D00E2E3AF0E0E830D0915010
:100970005040E695001CCAF729D0FE2F27D0660FFD
:10098000771F881FBB1F261737074807AB07B0E83C
:1009900009F0BB0B802DBF01FF2793585F4F2AF052
:1009A0009E3F510568F08DC0D7C05F3FECF3983E85
:1009B000DCF3869577956795B795F7959F5FC9F7AF
:1009C000880F911D9695879597F90895E1E0660F38
:1009D000771F881FBB1F621773078407BA0720F0B1
:1009E000621B730B840BBA0BEE1F88F7E09508951A
:1009F00098D088F09F5790F0B92F9927B751A0F061
:100A0000D1F0660F771F881F991F1AF0BA95C9F7A2
:100A100012C0B13081F09FD0B1E008959CC0672F23
:100A2000782F8827B85F39F0B93FCCF38695779552
:100A30006795B395D9F73EF490958095709561953B
:100A40007F4F8F4F9F4F0895E89409C097FB3EF466
:100A500090958095709561957F4F8F4F9F4F99230B
:100A6000A9F0F92F96E9BB279395F6958795779589
:100A70006795B795F111F8CFFAF4BB0F11F460FF49
:100A80001BC06F5F7F4F8F4F9F4F16C0882311F0A1
:100A900096E911C0772321F09EE8872F762F05C0B5
:100AA000662371F096E8862F70E060E02AF09A9550
:100AB000660F771F881FDAF7880F9695879597F945
:100AC000089597F99F6780E870E060E008959FEFD0
:100AD00080EC089500240A941616170618060906D5
:100AE000089500240A9412161306140605060895A4
:100AF000092E0394000C11F4882352F0BB0F40F42C
:100B0000BF2B11F460FF04C06F5F7F4F8F4F9F4F6B
:100B1000089557FD9058440F551F59F05F3F71F0ED
:100B20004795880F97FB991F61F09F3F79F0879554
:100B30000895121613061406551FF2CF4695F1DFDD
:100B400008C0161617061806991FF1CF869571056D
:100B5000610508940895E894BB2766277727CB01A1
:100B600097F90895991B79E004C0991F961708F02A
:100B7000961B881F7A95C9F780950895AA1BBB1B01
:100B800051E107C0AA1FBB1FA617B70710F0A61B8D
:100B9000B70B881F991F5A95A9F780959095BC01AE
:100BA000CD010895E199FECF9FBB8EBBE09A9927B6
:100BB0008DB30895262FE199FECF9FBB8EBB2DBB31
:100BC0000FB6F894E29AE19A0FBE01960895F89450
:020BD000FFCF55
:100BD20004000A000A000E000E001F0017000E009B
:00000001FF
