:100000000C9446000C9465000C9465000C946500FB
:100010000C9465000C9465000C9465000C946500CC
:100020000C9465000C9465000C9465000C946500BC
:100030000C9465000C9465000C9465000C94DB0135
:100040000C9465000C9465000C9465000C9465009C
:100050000C9465000C94EC010C9465000C94650004
:100060000C9465000C9465000C9465000C9465007C
:100070000C9465000C9465000C9465000C9465006C
:100080000C9465000C9465000C94650011241FBE4F
:10009000CFEFD0E1DEBFCDBF11E0A0E0B1E0E8EBF3
:1000A000F4E000E00BBF02C007900D92A031B10751
:1000B000D9F711E0A0E1B1E001C01D92A531B1076F
:1000C000E1F70E944A020C945A020C940000AA9A8A
:1000D000AA98089515BA0E94670080E185BB0E9426
:1000E00067008FE891E00197F1F700C000000895E4
:1000F0001F93182FA89A85B38F7085BB85B3912F56
:10010000907F892B85BB0E9467008FE891E0019763
:10011000F1F700C0000085B38F7085BB85B31295E1
:10012000107F182B15BB0E9467008FE891E00197A4
:10013000F1F700C00000A8981F9108951F93182F91
:1001400085B38F7085BB85B38068912F9077892B9D
:1001500085BB0E9467008FE891E00197F1F700C02E
:10016000000085B38F7085BB85B31295107F182B67
:1001700015BB0E9467008FE891E00197F1F700C07E
:1001800000001F9108951F93182F85B38F7085BBB2
:1001900085B38064912F907B892B85BB0E9467007B
:1001A0008FE891E00197F1F700C0000085B38F70F0
:1001B00085BB85B31295107F182B15BB0E94670075
:1001C0008FE891E00197F1F700C000001F910895BA
:1001D0001F9315BA87EF84BB8FEF94E3ACE0815097
:1001E0009040A040E1F700C000008FEF94E3ACE046
:1001F00081509040A040E1F700C0000010E315BB23
:100200000E9467008FEF91EEA4E081509040A040E3
:10021000E1F700C0000015BB0E9467008FEF93EC70
:10022000A9E081509040A040E1F700C0000010E23A
:1002300015BB0E9467008FEF91EEA4E081509040C3
:10024000A040E1F700C0000015BB0E94670010EC61
:1002500015BB0E946700AFE8B1E01197F1F700C04D
:10026000000015BA0E94670015BB0E9467008FE866
:1002700091E00197F1F700C000000E946A0015BAF2
:100280000E94670080E485BB0E946700AFE3BFE186
:100290001197F1F700C000001F9108951BBA80E488
:1002A0008ABB089517BE88E080BF8DE083BF8FEFC3
:1002B00081BF82E087BF16BE08953E9A389A87B103
:1002C00087B9379A86B1876086B9339A359A369A54
:1002D0000895EF92FF920F931F93DF93CF93CDB7C3
:1002E000DEB760970FB6F894DEBF0FBECDBFDE015C
:1002F0001196E8E0F1E088E001900D928150E1F77D
:10030000DE011996E0E0F1E088E001900D92815065
:10031000E1F70E94C3008FE891E00197F1F700C078
:1003200000008E010F5F1F4F0F2EF9E0EF2EFF240C
:10033000F02DEC0EFD1EF80181918F010E947800D6
:100340000E151F05C1F788E00E94C3008FE891E0F9
:100350000197F1F700C000008E01075F1F4F0F2EBD
:10036000F1E1EF2EFF24F02DEC0EFD1EF80181913E
:100370008F010E9478000E151F05C1F760960FB619
:10038000F894DEBF0FBECDBFCF91DF911F910F91CB
:10039000FF90EF9008958AE00E949E0080E00E9406
:1003A00078008EE00E949E0081E00E94780083E445
:1003B0000E94780008951F920F920FB60F92112499
:1003C0008F93809112018F5F809312018F910F9014
:1003D0000FBE0F901F9018951F920F920FB60F929D
:1003E00011248F939F9384B195B1909311018093C1
:1003F000100133989F918F910F900FBE0F901F9017
:1004000018951F93182F8A3030F080E01A508F5FB4
:100410001A30E0F701C080E0805D0E947800812FF3
:10042000805D0E9478001F91089582E00E949E00E6
:100430008091120180FD04C08AE30E94780003C00D
:1004400080E20E947800809112018C33A0F010921B
:100450001201809113018F5F809313018C3358F048
:1004600010921301809114018F5F809314018831E1
:1004700010F01092140180E00E949E0080911401FF
:100480000E94010283E00E949E00809113010E945D
:10049000010208950E944E010E94E8000E945D0141
:1004A0000E9452010E9469010E94CB0178940E942F
:0804B0001502FDCFF894FFCF07
:1004B8000205020000000000040A0A0E0E1F170EB3
:00000001FF
