:020000020000FC
:100000000C9447000C9446000C9446000C94460057
:100010000C9446000C9446000C9446000C94460048
:100020000C9446000C9446000C9446000C94460038
:100030000C9446000C9446000C9446000C94460028
:100040000C946F000C9446000C9446000C944600EF
:100050000C9446000C9446000C9446000C94460008
:100060000C9446000C9446000C9446000C944600F8
:100070000C9446000C9446000C9446000C944600E8
:100080000C9446000C9446000C94460018950FEF13
:100090000DBF00E10EBF00E00ABB0FE10BBB07E0A4
:1000A00007BB00E008BB00E107BB00E40ABBF89413
:1000B00007E103BF0FEF01BF00E001E007BF789445
:1000C00000E002BF10E0C999FECF1C3351F410E0EC
:1000D000CE9901C002C0DE981895DE9A1895139546
:0400E000F4CF1895AC
:00000001FF
