:020000020000FC
:1000000010C0000000000000000000000000000020
:1000100000000000000000000000000000000000E0
:10002000000002E00EBF0FE50DBF789400270ABB69
:1000300004BB08BB02BB04E007B903E006B90CEF40
:1000400001BB0FEF07BB0BBB05BB09E109B908E01A
:100050000AB906E800BD2FE038E52A99FECF07D09F
:100060005D9BFECF2CB95D9BFECF3CB9F6CF0F93C5
:100070002F933F930FEF0A95F1F73F912F910F9137
:020080000895E1
:00000001FF
