:020000020000FC
:1000000024C0189500001895000018950000189558
:10001000000018950000189500001895000018952C
:10002000000018950000189500001895000018951C
:10003000000018950000189500001895000018950C
:10004000000018950000189500000FEF0DBF00E1AB
:100050000EBF00E00093980007E60093990008E0C7
:1000600000939A000EE000939D0000E607B900E0BF
:1000700000B907E806B900E00ABB0FE10BBB00E5D9
:1000800028D00FE426D007E524D005E422D002E5ED
:1000900020D00FE51ED00FE41CD00EE41AD000C013
:1000A000F89407E103BF0FEF01BF6894C899FECF32
:1000B00006B1006406B9349BFECF05B10AD0F0CF7B
:1000C0000F930FEF2FEF0A952A95F1F7E1F70F91B4
:0E00D000089500919B0005FF00939C00089589
:00000001FF
